{
  "abi": [
    {
      "inputs": [
        {
          "internalType": "address",
          "name": "_gTokenVaultAddress",
          "type": "address"
        },
        {
          "internalType": "address",
          "name": "_carbonizedCollection",
          "type": "address"
        }
      ],
      "stateMutability": "nonpayable",
      "type": "constructor"
    },
    {
      "anonymous": false,
      "inputs": [
        {
          "indexed": true,
          "internalType": "address",
          "name": "previousOwner",
          "type": "address"
        },
        {
          "indexed": true,
          "internalType": "address",
          "name": "newOwner",
          "type": "address"
        }
      ],
      "name": "OwnershipTransferred",
      "type": "event"
    },
    {
      "inputs": [],
      "name": "carbonizedCollection",
      "outputs": [
        {
          "internalType": "address",
          "name": "",
          "type": "address"
        }
      ],
      "stateMutability": "view",
      "type": "function"
    },
    {
      "inputs": [],
      "name": "claim",
      "outputs": [],
      "stateMutability": "nonpayable",
      "type": "function"
    },
    {
      "inputs": [],
      "name": "deposit",
      "outputs": [],
      "stateMutability": "payable",
      "type": "function"
    },
    {
      "inputs": [],
      "name": "gTokenVault",
      "outputs": [
        {
          "internalType": "contract ImpactVaultInterface",
          "name": "",
          "type": "address"
        }
      ],
      "stateMutability": "view",
      "type": "function"
    },
    {
      "inputs": [],
      "name": "getDeposit",
      "outputs": [
        {
          "internalType": "uint256",
          "name": "",
          "type": "uint256"
        }
      ],
      "stateMutability": "view",
      "type": "function"
    },
    {
      "inputs": [],
      "name": "getYield",
      "outputs": [
        {
          "internalType": "uint256",
          "name": "",
          "type": "uint256"
        }
      ],
      "stateMutability": "view",
      "type": "function"
    },
    {
      "inputs": [],
      "name": "owner",
      "outputs": [
        {
          "internalType": "address",
          "name": "",
          "type": "address"
        }
      ],
      "stateMutability": "view",
      "type": "function"
    },
    {
      "inputs": [],
      "name": "renounceOwnership",
      "outputs": [],
      "stateMutability": "nonpayable",
      "type": "function"
    },
    {
      "inputs": [
        {
          "internalType": "address",
          "name": "newOwner",
          "type": "address"
        }
      ],
      "name": "transferOwnership",
      "outputs": [],
      "stateMutability": "nonpayable",
      "type": "function"
    },
    {
      "inputs": [
        {
          "internalType": "address",
          "name": "_receiver",
          "type": "address"
        }
      ],
      "name": "withdraw",
      "outputs": [],
      "stateMutability": "nonpayable",
      "type": "function"
    },
    {
      "inputs": [],
      "name": "withdrawls",
      "outputs": [
        {
          "internalType": "uint256",
          "name": "value",
          "type": "uint256"
        },
        {
          "internalType": "uint256",
          "name": "timestamp",
          "type": "uint256"
        }
      ],
      "stateMutability": "view",
      "type": "function"
    }
  ],
  "bytecode": {
    "object": "0x608060405234801561001057600080fd5b5060405161071c38038061071c83398101604081905261002f916100d5565b61003833610069565b600280546001600160a01b039384166001600160a01b03199182161790915560018054929093169116179055610108565b600080546001600160a01b038381166001600160a01b0319831681178455604051919092169283917f8be0079c531659141344cd1fd0a4f28419497f9722a3daafe3b4186f6b6457e09190a35050565b80516001600160a01b03811681146100d057600080fd5b919050565b600080604083850312156100e857600080fd5b6100f1836100b9565b91506100ff602084016100b9565b90509250929050565b610605806101176000396000f3fe60806040526004361061009c5760003560e01c80638da5cb5b116100645780638da5cb5b1461014d578063b1dd03fa1461016b578063c399ec881461018b578063d0e30db0146101a0578063f2fde38b146101a8578063f3576220146101c857600080fd5b80634e71d92d146100a157806351cff8d9146100b85780636e5837b6146100d8578063715018a6146101155780637c2628711461012a575b600080fd5b3480156100ad57600080fd5b506100b66101f2565b005b3480156100c457600080fd5b506100b66100d3366004610562565b61025c565b3480156100e457600080fd5b506001546100f8906001600160a01b031681565b6040516001600160a01b0390911681526020015b60405180910390f35b34801561012157600080fd5b506100b66102c4565b34801561013657600080fd5b5061013f6102d8565b60405190815260200161010c565b34801561015957600080fd5b506000546001600160a01b03166100f8565b34801561017757600080fd5b506002546100f8906001600160a01b031681565b34801561019757600080fd5b5061013f61034b565b6100b661037c565b3480156101b457600080fd5b506100b66101c3366004610562565b6103c2565b3480156101d457600080fd5b506101dd610440565b6040805192835260208301919091520161010c565b600260009054906101000a90046001600160a01b03166001600160a01b0316634e71d92d6040518163ffffffff1660e01b8152600401600060405180830381600087803b15801561024257600080fd5b505af1158015610256573d6000803e3d6000fd5b50505050565b6002546040516301395c5960e31b81526001600160a01b038381166004830152306024830152909116906309cae2c890604401600060405180830381600087803b1580156102a957600080fd5b505af11580156102bd573d6000803e3d6000fd5b5050505050565b6102cc6104b8565b6102d66000610512565b565b6002546040516364c3397760e01b81523060048201526000916001600160a01b0316906364c33977906024015b602060405180830381865afa158015610322573d6000803e3d6000fd5b505050506040513d601f19601f820116820180604052508101906103469190610592565b905090565b6002546040516370a0823160e01b81523060048201526000916001600160a01b0316906370a0823190602401610305565b600254604051631696d40360e11b81523060048201526001600160a01b0390911690632d2da8069034906024016000604051808303818588803b1580156102a957600080fd5b6103ca6104b8565b6001600160a01b0381166104345760405162461bcd60e51b815260206004820152602660248201527f4f776e61626c653a206e6577206f776e657220697320746865207a65726f206160448201526564647265737360d01b60648201526084015b60405180910390fd5b61043d81610512565b50565b600254604051633d49315160e11b815230600482015260009182916001600160a01b0390911690637a9262a2906024016040805180830381865afa15801561048c573d6000803e3d6000fd5b505050506040513d601f19601f820116820180604052508101906104b091906105ab565b915091509091565b6000546001600160a01b031633146102d65760405162461bcd60e51b815260206004820181905260248201527f4f776e61626c653a2063616c6c6572206973206e6f7420746865206f776e6572604482015260640161042b565b600080546001600160a01b038381166001600160a01b0319831681178455604051919092169283917f8be0079c531659141344cd1fd0a4f28419497f9722a3daafe3b4186f6b6457e09190a35050565b60006020828403121561057457600080fd5b81356001600160a01b038116811461058b57600080fd5b9392505050565b6000602082840312156105a457600080fd5b5051919050565b600080604083850312156105be57600080fd5b50508051602090910151909290915056fea2646970667358221220125f337c0a5feedd90fa605a5eff127a48db98cb0fb201012943dde36fd9b4b164736f6c63430008110033",
    "linkReferences": {}
  },
  "methodIdentifiers": {
    "carbonizedCollection()": "6e5837b6",
    "claim()": "4e71d92d",
    "deposit()": "d0e30db0",
    "gTokenVault()": "b1dd03fa",
    "getDeposit()": "c399ec88",
    "getYield()": "7c262871",
    "owner()": "8da5cb5b",
    "renounceOwnership()": "715018a6",
    "transferOwnership(address)": "f2fde38b",
    "withdraw(address)": "51cff8d9",
    "withdrawls()": "f3576220"
  },
  "id": 49
}