{
  "abi": [
    {
      "inputs": [
        {
          "internalType": "string",
          "name": "_name",
          "type": "string"
        },
        {
          "internalType": "string",
          "name": "_symbol",
          "type": "string"
        },
        {
          "internalType": "string",
          "name": "_initBaseURI",
          "type": "string"
        }
      ],
      "stateMutability": "nonpayable",
      "type": "constructor"
    },
    {
      "anonymous": false,
      "inputs": [
        {
          "indexed": true,
          "internalType": "address",
          "name": "owner",
          "type": "address"
        },
        {
          "indexed": true,
          "internalType": "address",
          "name": "approved",
          "type": "address"
        },
        {
          "indexed": true,
          "internalType": "uint256",
          "name": "tokenId",
          "type": "uint256"
        }
      ],
      "name": "Approval",
      "type": "event"
    },
    {
      "anonymous": false,
      "inputs": [
        {
          "indexed": true,
          "internalType": "address",
          "name": "owner",
          "type": "address"
        },
        {
          "indexed": true,
          "internalType": "address",
          "name": "operator",
          "type": "address"
        },
        {
          "indexed": false,
          "internalType": "bool",
          "name": "approved",
          "type": "bool"
        }
      ],
      "name": "ApprovalForAll",
      "type": "event"
    },
    {
      "anonymous": false,
      "inputs": [
        {
          "indexed": true,
          "internalType": "address",
          "name": "previousOwner",
          "type": "address"
        },
        {
          "indexed": true,
          "internalType": "address",
          "name": "newOwner",
          "type": "address"
        }
      ],
      "name": "OwnershipTransferred",
      "type": "event"
    },
    {
      "anonymous": false,
      "inputs": [
        {
          "indexed": true,
          "internalType": "address",
          "name": "from",
          "type": "address"
        },
        {
          "indexed": true,
          "internalType": "address",
          "name": "to",
          "type": "address"
        },
        {
          "indexed": true,
          "internalType": "uint256",
          "name": "tokenId",
          "type": "uint256"
        }
      ],
      "name": "Transfer",
      "type": "event"
    },
    {
      "inputs": [
        {
          "internalType": "address",
          "name": "to",
          "type": "address"
        },
        {
          "internalType": "uint256",
          "name": "tokenId",
          "type": "uint256"
        }
      ],
      "name": "approve",
      "outputs": [],
      "stateMutability": "nonpayable",
      "type": "function"
    },
    {
      "inputs": [
        {
          "internalType": "address",
          "name": "owner",
          "type": "address"
        }
      ],
      "name": "balanceOf",
      "outputs": [
        {
          "internalType": "uint256",
          "name": "",
          "type": "uint256"
        }
      ],
      "stateMutability": "view",
      "type": "function"
    },
    {
      "inputs": [],
      "name": "baseExtension",
      "outputs": [
        {
          "internalType": "string",
          "name": "",
          "type": "string"
        }
      ],
      "stateMutability": "view",
      "type": "function"
    },
    {
      "inputs": [],
      "name": "baseURI",
      "outputs": [
        {
          "internalType": "string",
          "name": "",
          "type": "string"
        }
      ],
      "stateMutability": "view",
      "type": "function"
    },
    {
      "inputs": [],
      "name": "cost",
      "outputs": [
        {
          "internalType": "uint256",
          "name": "",
          "type": "uint256"
        }
      ],
      "stateMutability": "view",
      "type": "function"
    },
    {
      "inputs": [
        {
          "internalType": "uint256",
          "name": "tokenId",
          "type": "uint256"
        }
      ],
      "name": "getApproved",
      "outputs": [
        {
          "internalType": "address",
          "name": "",
          "type": "address"
        }
      ],
      "stateMutability": "view",
      "type": "function"
    },
    {
      "inputs": [
        {
          "internalType": "address",
          "name": "owner",
          "type": "address"
        },
        {
          "internalType": "address",
          "name": "operator",
          "type": "address"
        }
      ],
      "name": "isApprovedForAll",
      "outputs": [
        {
          "internalType": "bool",
          "name": "",
          "type": "bool"
        }
      ],
      "stateMutability": "view",
      "type": "function"
    },
    {
      "inputs": [],
      "name": "maxMintAmount",
      "outputs": [
        {
          "internalType": "uint256",
          "name": "",
          "type": "uint256"
        }
      ],
      "stateMutability": "view",
      "type": "function"
    },
    {
      "inputs": [],
      "name": "maxSupply",
      "outputs": [
        {
          "internalType": "uint256",
          "name": "",
          "type": "uint256"
        }
      ],
      "stateMutability": "view",
      "type": "function"
    },
    {
      "inputs": [
        {
          "internalType": "address",
          "name": "_to",
          "type": "address"
        },
        {
          "internalType": "uint256",
          "name": "_mintAmount",
          "type": "uint256"
        }
      ],
      "name": "mint",
      "outputs": [],
      "stateMutability": "payable",
      "type": "function"
    },
    {
      "inputs": [],
      "name": "name",
      "outputs": [
        {
          "internalType": "string",
          "name": "",
          "type": "string"
        }
      ],
      "stateMutability": "view",
      "type": "function"
    },
    {
      "inputs": [],
      "name": "owner",
      "outputs": [
        {
          "internalType": "address",
          "name": "",
          "type": "address"
        }
      ],
      "stateMutability": "view",
      "type": "function"
    },
    {
      "inputs": [
        {
          "internalType": "uint256",
          "name": "tokenId",
          "type": "uint256"
        }
      ],
      "name": "ownerOf",
      "outputs": [
        {
          "internalType": "address",
          "name": "",
          "type": "address"
        }
      ],
      "stateMutability": "view",
      "type": "function"
    },
    {
      "inputs": [],
      "name": "renounceOwnership",
      "outputs": [],
      "stateMutability": "nonpayable",
      "type": "function"
    },
    {
      "inputs": [
        {
          "internalType": "address",
          "name": "from",
          "type": "address"
        },
        {
          "internalType": "address",
          "name": "to",
          "type": "address"
        },
        {
          "internalType": "uint256",
          "name": "tokenId",
          "type": "uint256"
        }
      ],
      "name": "safeTransferFrom",
      "outputs": [],
      "stateMutability": "nonpayable",
      "type": "function"
    },
    {
      "inputs": [
        {
          "internalType": "address",
          "name": "from",
          "type": "address"
        },
        {
          "internalType": "address",
          "name": "to",
          "type": "address"
        },
        {
          "internalType": "uint256",
          "name": "tokenId",
          "type": "uint256"
        },
        {
          "internalType": "bytes",
          "name": "data",
          "type": "bytes"
        }
      ],
      "name": "safeTransferFrom",
      "outputs": [],
      "stateMutability": "nonpayable",
      "type": "function"
    },
    {
      "inputs": [
        {
          "internalType": "address",
          "name": "operator",
          "type": "address"
        },
        {
          "internalType": "bool",
          "name": "approved",
          "type": "bool"
        }
      ],
      "name": "setApprovalForAll",
      "outputs": [],
      "stateMutability": "nonpayable",
      "type": "function"
    },
    {
      "inputs": [
        {
          "internalType": "string",
          "name": "_newBaseExtension",
          "type": "string"
        }
      ],
      "name": "setBaseExtension",
      "outputs": [],
      "stateMutability": "nonpayable",
      "type": "function"
    },
    {
      "inputs": [
        {
          "internalType": "string",
          "name": "_newBaseURI",
          "type": "string"
        }
      ],
      "name": "setBaseURI",
      "outputs": [],
      "stateMutability": "nonpayable",
      "type": "function"
    },
    {
      "inputs": [
        {
          "internalType": "uint256",
          "name": "_newCost",
          "type": "uint256"
        }
      ],
      "name": "setCost",
      "outputs": [],
      "stateMutability": "nonpayable",
      "type": "function"
    },
    {
      "inputs": [
        {
          "internalType": "uint256",
          "name": "_newmaxMintAmount",
          "type": "uint256"
        }
      ],
      "name": "setMaxMintAmount",
      "outputs": [],
      "stateMutability": "nonpayable",
      "type": "function"
    },
    {
      "inputs": [
        {
          "internalType": "bytes4",
          "name": "interfaceId",
          "type": "bytes4"
        }
      ],
      "name": "supportsInterface",
      "outputs": [
        {
          "internalType": "bool",
          "name": "",
          "type": "bool"
        }
      ],
      "stateMutability": "view",
      "type": "function"
    },
    {
      "inputs": [],
      "name": "symbol",
      "outputs": [
        {
          "internalType": "string",
          "name": "",
          "type": "string"
        }
      ],
      "stateMutability": "view",
      "type": "function"
    },
    {
      "inputs": [
        {
          "internalType": "uint256",
          "name": "index",
          "type": "uint256"
        }
      ],
      "name": "tokenByIndex",
      "outputs": [
        {
          "internalType": "uint256",
          "name": "",
          "type": "uint256"
        }
      ],
      "stateMutability": "view",
      "type": "function"
    },
    {
      "inputs": [
        {
          "internalType": "address",
          "name": "owner",
          "type": "address"
        },
        {
          "internalType": "uint256",
          "name": "index",
          "type": "uint256"
        }
      ],
      "name": "tokenOfOwnerByIndex",
      "outputs": [
        {
          "internalType": "uint256",
          "name": "",
          "type": "uint256"
        }
      ],
      "stateMutability": "view",
      "type": "function"
    },
    {
      "inputs": [
        {
          "internalType": "uint256",
          "name": "tokenId",
          "type": "uint256"
        }
      ],
      "name": "tokenURI",
      "outputs": [
        {
          "internalType": "string",
          "name": "",
          "type": "string"
        }
      ],
      "stateMutability": "view",
      "type": "function"
    },
    {
      "inputs": [],
      "name": "totalSupply",
      "outputs": [
        {
          "internalType": "uint256",
          "name": "",
          "type": "uint256"
        }
      ],
      "stateMutability": "view",
      "type": "function"
    },
    {
      "inputs": [
        {
          "internalType": "address",
          "name": "from",
          "type": "address"
        },
        {
          "internalType": "address",
          "name": "to",
          "type": "address"
        },
        {
          "internalType": "uint256",
          "name": "tokenId",
          "type": "uint256"
        }
      ],
      "name": "transferFrom",
      "outputs": [],
      "stateMutability": "nonpayable",
      "type": "function"
    },
    {
      "inputs": [
        {
          "internalType": "address",
          "name": "newOwner",
          "type": "address"
        }
      ],
      "name": "transferOwnership",
      "outputs": [],
      "stateMutability": "nonpayable",
      "type": "function"
    },
    {
      "inputs": [
        {
          "internalType": "address",
          "name": "_owner",
          "type": "address"
        }
      ],
      "name": "walletOfOwner",
      "outputs": [
        {
          "internalType": "uint256[]",
          "name": "",
          "type": "uint256[]"
        }
      ],
      "stateMutability": "view",
      "type": "function"
    },
    {
      "inputs": [],
      "name": "withdraw",
      "outputs": [],
      "stateMutability": "payable",
      "type": "function"
    },
    {
      "inputs": [
        {
          "internalType": "contract IERC20",
          "name": "token",
          "type": "address"
        }
      ],
      "name": "withdrawERC20",
      "outputs": [],
      "stateMutability": "nonpayable",
      "type": "function"
    }
  ],
  "bytecode": {
    "object": "0x60c06040526005608090815264173539b7b760d91b60a052600c9062000026908262000bfe565b506064600d55600a600e55670de0b6b3a7640000600f553480156200004a57600080fd5b506040516200344c3803806200344c8339810160408190526200006d9162000d81565b82826200007a33620000c1565b600162000088838262000bfe565b50600262000097828262000bfe565b505050620000ab816200011160201b60201c565b620000b833600a6200012d565b50505062000f45565b600080546001600160a01b038381166001600160a01b0319831681178455604051919092169283917f8be0079c531659141344cd1fd0a4f28419497f9722a3daafe3b4186f6b6457e09190a35050565b6200011b62000323565b600b62000129828262000bfe565b5050565b60006200013960095490565b905060008211620001a65760405162461bcd60e51b815260206004820152602c60248201527f4d6f636b4e46543a206d696e74416d6f756e742073686f756c6420626520677260448201526b06561746572207468616e20360a41b60648201526084015b60405180910390fd5b600e54821115620002135760405162461bcd60e51b815260206004820152603060248201527f4d6f636b4e46543a206d696e74416d6f756e742073686f756c64206265206c6560448201526f1cdcc81d1a185b881b585e081b5a5b9d60821b60648201526084016200019d565b600d5462000222838362000e28565b1115620002725760405162461bcd60e51b815260206004820152601d60248201527f4d6f636b4e46543a20537570706c79206e6f7420617661696c61626c6500000060448201526064016200019d565b6000546001600160a01b03163314620002e65781600f5462000295919062000e44565b341015620002e65760405162461bcd60e51b815260206004820152601960248201527f4d6f636b4e46543a20496e737566666369656e742043656c6f0000000000000060448201526064016200019d565b60015b8281116200031d57620003088462000302838562000e28565b62000381565b80620003148162000e5e565b915050620002e9565b50505050565b6000546001600160a01b031633146200037f5760405162461bcd60e51b815260206004820181905260248201527f4f776e61626c653a2063616c6c6572206973206e6f7420746865206f776e657260448201526064016200019d565b565b62000129828260405180602001604052806000815250620003a360201b60201c565b620003af83836200041b565b620003be6000848484620005bc565b620004165760405162461bcd60e51b815260206004820152603260248201526000805160206200342c83398151915260448201527131b2b4bb32b91034b6b83632b6b2b73a32b960711b60648201526084016200019d565b505050565b6001600160a01b038216620004735760405162461bcd60e51b815260206004820181905260248201527f4552433732313a206d696e7420746f20746865207a65726f206164647265737360448201526064016200019d565b6000818152600360205260409020546001600160a01b031615620004da5760405162461bcd60e51b815260206004820152601c60248201527f4552433732313a20746f6b656e20616c7265616479206d696e7465640000000060448201526064016200019d565b620004ea60008383600162000718565b6000818152600360205260409020546001600160a01b031615620005515760405162461bcd60e51b815260206004820152601c60248201527f4552433732313a20746f6b656e20616c7265616479206d696e7465640000000060448201526064016200019d565b6001600160a01b038216600081815260046020908152604080832080546001019055848352600390915280822080546001600160a01b0319168417905551839291907fddf252ad1be2c89b69c2b068fc378daa952ba7f163c4a11628f55a4df523b3ef908290a45050565b6000620005dd846001600160a01b03166200087c60201b620010d11760201c565b156200070c57604051630a85bd0160e11b81526001600160a01b0385169063150b7a02906200061790339089908890889060040162000e7a565b6020604051808303816000875af192505050801562000655575060408051601f3d908101601f19168201909252620006529181019062000ed0565b60015b620006f1573d80801562000686576040519150601f19603f3d011682016040523d82523d6000602084013e6200068b565b606091505b508051600003620006e95760405162461bcd60e51b815260206004820152603260248201526000805160206200342c83398151915260448201527131b2b4bb32b91034b6b83632b6b2b73a32b960711b60648201526084016200019d565b805181602001fd5b6001600160e01b031916630a85bd0160e11b14905062000710565b5060015b949350505050565b62000731848484846200088b60201b620010e01760201c565b6001811115620007aa5760405162461bcd60e51b815260206004820152603560248201527f455243373231456e756d657261626c653a20636f6e736563757469766520747260448201527f616e7366657273206e6f7420737570706f72746564000000000000000000000060648201526084016200019d565b816001600160a01b03851662000809576200080381600980546000838152600a60205260408120829055600182018355919091527f6e1540171b6c0c960b71a7020d9f60077f6af931a8bbf590da0223dacf75c7af0155565b6200082f565b836001600160a01b0316856001600160a01b0316146200082f576200082f85826200091a565b6001600160a01b0384166200084f576200084981620009c7565b62000875565b846001600160a01b0316846001600160a01b031614620008755762000875848262000a81565b5050505050565b6001600160a01b03163b151590565b60018111156200031d576001600160a01b03841615620008d5576001600160a01b03841660009081526004602052604081208054839290620008cf90849062000f03565b90915550505b6001600160a01b038316156200031d576001600160a01b038316600090815260046020526040812080548392906200090f90849062000e28565b909155505050505050565b60006001620009348462000ad260201b62000d551760201c565b62000940919062000f03565b60008381526008602052604090205490915080821462000994576001600160a01b03841660009081526007602090815260408083208584528252808320548484528184208190558352600890915290208190555b5060009182526008602090815260408084208490556001600160a01b039094168352600781528383209183525290812055565b600954600090620009db9060019062000f03565b6000838152600a60205260408120546009805493945090928490811062000a065762000a0662000f19565b90600052602060002001549050806009838154811062000a2a5762000a2a62000f19565b6000918252602080832090910192909255828152600a9091526040808220849055858252812055600980548062000a655762000a6562000f2f565b6001900381819060005260206000200160009055905550505050565b600062000a998362000ad260201b62000d551760201c565b6001600160a01b039093166000908152600760209081526040808320868452825280832085905593825260089052919091209190915550565b60006001600160a01b03821662000b3e5760405162461bcd60e51b815260206004820152602960248201527f4552433732313a2061646472657373207a65726f206973206e6f7420612076616044820152683634b21037bbb732b960b91b60648201526084016200019d565b506001600160a01b031660009081526004602052604090205490565b634e487b7160e01b600052604160045260246000fd5b600181811c9082168062000b8557607f821691505b60208210810362000ba657634e487b7160e01b600052602260045260246000fd5b50919050565b601f8211156200041657600081815260208120601f850160051c8101602086101562000bd55750805b601f850160051c820191505b8181101562000bf65782815560010162000be1565b505050505050565b81516001600160401b0381111562000c1a5762000c1a62000b5a565b62000c328162000c2b845462000b70565b8462000bac565b602080601f83116001811462000c6a576000841562000c515750858301515b600019600386901b1c1916600185901b17855562000bf6565b600085815260208120601f198616915b8281101562000c9b5788860151825594840194600190910190840162000c7a565b508582101562000cba5787850151600019600388901b60f8161c191681555b5050505050600190811b01905550565b60005b8381101562000ce757818101518382015260200162000ccd565b50506000910152565b600082601f83011262000d0257600080fd5b81516001600160401b038082111562000d1f5762000d1f62000b5a565b604051601f8301601f19908116603f0116810190828211818310171562000d4a5762000d4a62000b5a565b8160405283815286602085880101111562000d6457600080fd5b62000d7784602083016020890162000cca565b9695505050505050565b60008060006060848603121562000d9757600080fd5b83516001600160401b038082111562000daf57600080fd5b62000dbd8783880162000cf0565b9450602086015191508082111562000dd457600080fd5b62000de28783880162000cf0565b9350604086015191508082111562000df957600080fd5b5062000e088682870162000cf0565b9150509250925092565b634e487b7160e01b600052601160045260246000fd5b8082018082111562000e3e5762000e3e62000e12565b92915050565b808202811582820484141762000e3e5762000e3e62000e12565b60006001820162000e735762000e7362000e12565b5060010190565b600060018060a01b03808716835280861660208401525083604083015260806060830152825180608084015262000eb98160a085016020870162000cca565b601f01601f19169190910160a00195945050505050565b60006020828403121562000ee357600080fd5b81516001600160e01b03198116811462000efc57600080fd5b9392505050565b8181038181111562000e3e5762000e3e62000e12565b634e487b7160e01b600052603260045260246000fd5b634e487b7160e01b600052603160045260246000fd5b6124d78062000f556000396000f3fe6080604052600436106101e35760003560e01c806355f804b311610102578063b88d4fde11610095578063da3ef23f11610064578063da3ef23f14610538578063e985e9c514610558578063f2fde38b146105a1578063f4f3b200146105c157600080fd5b8063b88d4fde146104cd578063c6682862146104ed578063c87b56dd14610502578063d5abeb011461052257600080fd5b8063715018a6116100d1578063715018a6146104655780638da5cb5b1461047a57806395d89b4114610498578063a22cb465146104ad57600080fd5b806355f804b3146103f05780636352211e146104105780636c0360eb1461043057806370a082311461044557600080fd5b806323b872dd1161017a57806342842e0e1161014957806342842e0e14610363578063438b63001461038357806344a0d68a146103b05780634f6ccce7146103d057600080fd5b806323b872dd146103085780632f745c59146103285780633ccfd60b1461034857806340c10f191461035057600080fd5b8063095ea7b3116101b6578063095ea7b31461029957806313faede6146102b957806318160ddd146102dd578063239c70ae146102f257600080fd5b806301ffc9a7146101e857806306fdde031461021d578063081812fc1461023f578063088a4ed014610277575b600080fd5b3480156101f457600080fd5b50610208610203366004611d67565b6105e1565b60405190151581526020015b60405180910390f35b34801561022957600080fd5b5061023261060c565b6040516102149190611dd4565b34801561024b57600080fd5b5061025f61025a366004611de7565b61069e565b6040516001600160a01b039091168152602001610214565b34801561028357600080fd5b50610297610292366004611de7565b6106c5565b005b3480156102a557600080fd5b506102976102b4366004611e15565b6106d2565b3480156102c557600080fd5b506102cf600f5481565b604051908152602001610214565b3480156102e957600080fd5b506009546102cf565b3480156102fe57600080fd5b506102cf600e5481565b34801561031457600080fd5b50610297610323366004611e41565b6107ec565b34801561033457600080fd5b506102cf610343366004611e15565b61081d565b6102976108b3565b61029761035e366004611e15565b610916565b34801561036f57600080fd5b5061029761037e366004611e41565b610af2565b34801561038f57600080fd5b506103a361039e366004611e82565b610b0d565b6040516102149190611e9f565b3480156103bc57600080fd5b506102976103cb366004611de7565b610baf565b3480156103dc57600080fd5b506102cf6103eb366004611de7565b610bbc565b3480156103fc57600080fd5b5061029761040b366004611f6f565b610c4f565b34801561041c57600080fd5b5061025f61042b366004611de7565b610c67565b34801561043c57600080fd5b50610232610cc7565b34801561045157600080fd5b506102cf610460366004611e82565b610d55565b34801561047157600080fd5b50610297610ddb565b34801561048657600080fd5b506000546001600160a01b031661025f565b3480156104a457600080fd5b50610232610ded565b3480156104b957600080fd5b506102976104c8366004611fc6565b610dfc565b3480156104d957600080fd5b506102976104e8366004611fff565b610e07565b3480156104f957600080fd5b50610232610e39565b34801561050e57600080fd5b5061023261051d366004611de7565b610e46565b34801561052e57600080fd5b506102cf600d5481565b34801561054457600080fd5b50610297610553366004611f6f565b610f1d565b34801561056457600080fd5b5061020861057336600461207f565b6001600160a01b03918216600090815260066020908152604080832093909416825291909152205460ff1690565b3480156105ad57600080fd5b506102976105bc366004611e82565b610f31565b3480156105cd57600080fd5b506102976105dc366004611e82565b610faa565b60006001600160e01b0319821663780e9d6360e01b1480610606575061060682611168565b92915050565b60606001805461061b906120ad565b80601f0160208091040260200160405190810160405280929190818152602001828054610647906120ad565b80156106945780601f1061066957610100808354040283529160200191610694565b820191906000526020600020905b81548152906001019060200180831161067757829003601f168201915b5050505050905090565b60006106a9826111b8565b506000908152600560205260409020546001600160a01b031690565b6106cd611217565b600e55565b60006106dd82610c67565b9050806001600160a01b0316836001600160a01b03160361074f5760405162461bcd60e51b815260206004820152602160248201527f4552433732313a20617070726f76616c20746f2063757272656e74206f776e656044820152603960f91b60648201526084015b60405180910390fd5b336001600160a01b038216148061076b575061076b8133610573565b6107dd5760405162461bcd60e51b815260206004820152603d60248201527f4552433732313a20617070726f76652063616c6c6572206973206e6f7420746f60448201527f6b656e206f776e6572206f7220617070726f76656420666f7220616c6c0000006064820152608401610746565b6107e78383611271565b505050565b6107f633826112df565b6108125760405162461bcd60e51b8152600401610746906120e7565b6107e783838361135e565b600061082883610d55565b821061088a5760405162461bcd60e51b815260206004820152602b60248201527f455243373231456e756d657261626c653a206f776e657220696e646578206f7560448201526a74206f6620626f756e647360a81b6064820152608401610746565b506001600160a01b03919091166000908152600760209081526040808320938352929052205490565b6108bb611217565b60405133904780156108fc02916000818181858888f193505050506109145760405162461bcd60e51b815260206004820152600f60248201526e151c985b9cd9995c8811985a5b1959608a1b6044820152606401610746565b565b600061092160095490565b9050600082116109885760405162461bcd60e51b815260206004820152602c60248201527f4d6f636b4e46543a206d696e74416d6f756e742073686f756c6420626520677260448201526b06561746572207468616e20360a41b6064820152608401610746565b600e548211156109f35760405162461bcd60e51b815260206004820152603060248201527f4d6f636b4e46543a206d696e74416d6f756e742073686f756c64206265206c6560448201526f1cdcc81d1a185b881b585e081b5a5b9d60821b6064820152608401610746565b600d54610a00838361214a565b1115610a4e5760405162461bcd60e51b815260206004820152601d60248201527f4d6f636b4e46543a20537570706c79206e6f7420617661696c61626c650000006044820152606401610746565b6000546001600160a01b03163314610abd5781600f54610a6e919061215d565b341015610abd5760405162461bcd60e51b815260206004820152601960248201527f4d6f636b4e46543a20496e737566666369656e742043656c6f000000000000006044820152606401610746565b60015b828111610aec57610ada84610ad5838561214a565b6114cf565b80610ae481612174565b915050610ac0565b50505050565b6107e783838360405180602001604052806000815250610e07565b60606000610b1a83610d55565b905060008167ffffffffffffffff811115610b3757610b37611ee3565b604051908082528060200260200182016040528015610b60578160200160208202803683370190505b50905060005b82811015610ba757610b78858261081d565b828281518110610b8a57610b8a61218d565b602090810291909101015280610b9f81612174565b915050610b66565b509392505050565b610bb7611217565b600f55565b6000610bc760095490565b8210610c2a5760405162461bcd60e51b815260206004820152602c60248201527f455243373231456e756d657261626c653a20676c6f62616c20696e646578206f60448201526b7574206f6620626f756e647360a01b6064820152608401610746565b60098281548110610c3d57610c3d61218d565b90600052602060002001549050919050565b610c57611217565b600b610c6382826121f1565b5050565b6000818152600360205260408120546001600160a01b0316806106065760405162461bcd60e51b8152602060048201526018602482015277115490cdcc8c4e881a5b9d985b1a59081d1bdad95b88125160421b6044820152606401610746565b600b8054610cd4906120ad565b80601f0160208091040260200160405190810160405280929190818152602001828054610d00906120ad565b8015610d4d5780601f10610d2257610100808354040283529160200191610d4d565b820191906000526020600020905b815481529060010190602001808311610d3057829003601f168201915b505050505081565b60006001600160a01b038216610dbf5760405162461bcd60e51b815260206004820152602960248201527f4552433732313a2061646472657373207a65726f206973206e6f7420612076616044820152683634b21037bbb732b960b91b6064820152608401610746565b506001600160a01b031660009081526004602052604090205490565b610de3611217565b61091460006114e9565b60606002805461061b906120ad565b610c63338383611539565b610e1133836112df565b610e2d5760405162461bcd60e51b8152600401610746906120e7565b610aec84848484611607565b600c8054610cd4906120ad565b6000818152600360205260409020546060906001600160a01b0316610ebe5760405162461bcd60e51b815260206004820152602860248201527f4d6f636b4e46543a2055524920717565727920666f72206e6f6e657869737465604482015267373a103a37b5b2b760c11b6064820152608401610746565b6000610ec861163a565b90506000815111610ee85760405180602001604052806000815250610f16565b80610ef284611649565b600c604051602001610f06939291906122b1565b6040516020818303038152906040525b9392505050565b610f25611217565b600c610c6382826121f1565b610f39611217565b6001600160a01b038116610f9e5760405162461bcd60e51b815260206004820152602660248201527f4f776e61626c653a206e6577206f776e657220697320746865207a65726f206160448201526564647265737360d01b6064820152608401610746565b610fa7816114e9565b50565b610fb2611217565b6040516370a0823160e01b81523060048201526001600160a01b0382169063a9059cbb90339083906370a0823190602401602060405180830381865afa158015611000573d6000803e3d6000fd5b505050506040513d601f19601f820116820180604052508101906110249190612351565b6040516001600160e01b031960e085901b1681526001600160a01b03909216600483015260248201526044016020604051808303816000875af115801561106f573d6000803e3d6000fd5b505050506040513d601f19601f82011682018060405250810190611093919061236a565b610fa75760405162461bcd60e51b815260206004820152600f60248201526e151c985b9cd9995c8819985a5b1959608a1b6044820152606401610746565b6001600160a01b03163b151590565b6001811115610aec576001600160a01b03841615611126576001600160a01b03841660009081526004602052604081208054839290611120908490612387565b90915550505b6001600160a01b03831615610aec576001600160a01b0383166000908152600460205260408120805483929061115d90849061214a565b909155505050505050565b60006001600160e01b031982166380ac58cd60e01b148061119957506001600160e01b03198216635b5e139f60e01b145b8061060657506301ffc9a760e01b6001600160e01b0319831614610606565b6000818152600360205260409020546001600160a01b0316610fa75760405162461bcd60e51b8152602060048201526018602482015277115490cdcc8c4e881a5b9d985b1a59081d1bdad95b88125160421b6044820152606401610746565b6000546001600160a01b031633146109145760405162461bcd60e51b815260206004820181905260248201527f4f776e61626c653a2063616c6c6572206973206e6f7420746865206f776e65726044820152606401610746565b600081815260056020526040902080546001600160a01b0319166001600160a01b03841690811790915581906112a682610c67565b6001600160a01b03167f8c5be1e5ebec7d5bd14f71427d1e84f3dd0314c0f7b2291e5b200ac8c7c3b92560405160405180910390a45050565b6000806112eb83610c67565b9050806001600160a01b0316846001600160a01b0316148061133257506001600160a01b0380821660009081526006602090815260408083209388168352929052205460ff165b806113565750836001600160a01b031661134b8461069e565b6001600160a01b0316145b949350505050565b826001600160a01b031661137182610c67565b6001600160a01b0316146113975760405162461bcd60e51b81526004016107469061239a565b6001600160a01b0382166113f95760405162461bcd60e51b8152602060048201526024808201527f4552433732313a207472616e7366657220746f20746865207a65726f206164646044820152637265737360e01b6064820152608401610746565b61140683838360016116dc565b826001600160a01b031661141982610c67565b6001600160a01b03161461143f5760405162461bcd60e51b81526004016107469061239a565b600081815260056020908152604080832080546001600160a01b03199081169091556001600160a01b0387811680865260048552838620805460001901905590871680865283862080546001019055868652600390945282852080549092168417909155905184937fddf252ad1be2c89b69c2b068fc378daa952ba7f163c4a11628f55a4df523b3ef91a4505050565b610c6382826040518060200160405280600081525061181c565b600080546001600160a01b038381166001600160a01b0319831681178455604051919092169283917f8be0079c531659141344cd1fd0a4f28419497f9722a3daafe3b4186f6b6457e09190a35050565b816001600160a01b0316836001600160a01b03160361159a5760405162461bcd60e51b815260206004820152601960248201527f4552433732313a20617070726f766520746f2063616c6c6572000000000000006044820152606401610746565b6001600160a01b03838116600081815260066020908152604080832094871680845294825291829020805460ff191686151590811790915591519182527f17307eab39ab6107e8899845ad3d59bd9653f200f220920489ca2b5937696c31910160405180910390a3505050565b61161284848461135e565b61161e8484848461184f565b610aec5760405162461bcd60e51b8152600401610746906123df565b6060600b805461061b906120ad565b6060600061165683611950565b600101905060008167ffffffffffffffff81111561167657611676611ee3565b6040519080825280601f01601f1916602001820160405280156116a0576020820181803683370190505b5090508181016020015b600019016f181899199a1a9b1b9c1cb0b131b232b360811b600a86061a8153600a85049450846116aa57509392505050565b6116e8848484846110e0565b60018111156117575760405162461bcd60e51b815260206004820152603560248201527f455243373231456e756d657261626c653a20636f6e7365637574697665207472604482015274185b9cd9995c9cc81b9bdd081cdd5c1c1bdc9d1959605a1b6064820152608401610746565b816001600160a01b0385166117b3576117ae81600980546000838152600a60205260408120829055600182018355919091527f6e1540171b6c0c960b71a7020d9f60077f6af931a8bbf590da0223dacf75c7af0155565b6117d6565b836001600160a01b0316856001600160a01b0316146117d6576117d68582611a28565b6001600160a01b0384166117f2576117ed81611ac5565b611815565b846001600160a01b0316846001600160a01b031614611815576118158482611b74565b5050505050565b6118268383611bb8565b611833600084848461184f565b6107e75760405162461bcd60e51b8152600401610746906123df565b60006001600160a01b0384163b1561194557604051630a85bd0160e11b81526001600160a01b0385169063150b7a0290611893903390899088908890600401612431565b6020604051808303816000875af19250505080156118ce575060408051601f3d908101601f191682019092526118cb9181019061246e565b60015b61192b573d8080156118fc576040519150601f19603f3d011682016040523d82523d6000602084013e611901565b606091505b5080516000036119235760405162461bcd60e51b8152600401610746906123df565b805181602001fd5b6001600160e01b031916630a85bd0160e11b149050611356565b506001949350505050565b60008072184f03e93ff9f4daa797ed6e38ed64bf6a1f0160401b831061198f5772184f03e93ff9f4daa797ed6e38ed64bf6a1f0160401b830492506040015b6d04ee2d6d415b85acef810000000083106119bb576d04ee2d6d415b85acef8100000000830492506020015b662386f26fc1000083106119d957662386f26fc10000830492506010015b6305f5e10083106119f1576305f5e100830492506008015b6127108310611a0557612710830492506004015b60648310611a17576064830492506002015b600a83106106065760010192915050565b60006001611a3584610d55565b611a3f9190612387565b600083815260086020526040902054909150808214611a92576001600160a01b03841660009081526007602090815260408083208584528252808320548484528184208190558352600890915290208190555b5060009182526008602090815260408084208490556001600160a01b039094168352600781528383209183525290812055565b600954600090611ad790600190612387565b6000838152600a602052604081205460098054939450909284908110611aff57611aff61218d565b906000526020600020015490508060098381548110611b2057611b2061218d565b6000918252602080832090910192909255828152600a90915260408082208490558582528120556009805480611b5857611b5861248b565b6001900381819060005260206000200160009055905550505050565b6000611b7f83610d55565b6001600160a01b039093166000908152600760209081526040808320868452825280832085905593825260089052919091209190915550565b6001600160a01b038216611c0e5760405162461bcd60e51b815260206004820181905260248201527f4552433732313a206d696e7420746f20746865207a65726f20616464726573736044820152606401610746565b6000818152600360205260409020546001600160a01b031615611c735760405162461bcd60e51b815260206004820152601c60248201527f4552433732313a20746f6b656e20616c7265616479206d696e746564000000006044820152606401610746565b611c816000838360016116dc565b6000818152600360205260409020546001600160a01b031615611ce65760405162461bcd60e51b815260206004820152601c60248201527f4552433732313a20746f6b656e20616c7265616479206d696e746564000000006044820152606401610746565b6001600160a01b038216600081815260046020908152604080832080546001019055848352600390915280822080546001600160a01b0319168417905551839291907fddf252ad1be2c89b69c2b068fc378daa952ba7f163c4a11628f55a4df523b3ef908290a45050565b6001600160e01b031981168114610fa757600080fd5b600060208284031215611d7957600080fd5b8135610f1681611d51565b60005b83811015611d9f578181015183820152602001611d87565b50506000910152565b60008151808452611dc0816020860160208601611d84565b601f01601f19169290920160200192915050565b602081526000610f166020830184611da8565b600060208284031215611df957600080fd5b5035919050565b6001600160a01b0381168114610fa757600080fd5b60008060408385031215611e2857600080fd5b8235611e3381611e00565b946020939093013593505050565b600080600060608486031215611e5657600080fd5b8335611e6181611e00565b92506020840135611e7181611e00565b929592945050506040919091013590565b600060208284031215611e9457600080fd5b8135610f1681611e00565b6020808252825182820181905260009190848201906040850190845b81811015611ed757835183529284019291840191600101611ebb565b50909695505050505050565b634e487b7160e01b600052604160045260246000fd5b600067ffffffffffffffff80841115611f1457611f14611ee3565b604051601f8501601f19908116603f01168101908282118183101715611f3c57611f3c611ee3565b81604052809350858152868686011115611f5557600080fd5b858560208301376000602087830101525050509392505050565b600060208284031215611f8157600080fd5b813567ffffffffffffffff811115611f9857600080fd5b8201601f81018413611fa957600080fd5b61135684823560208401611ef9565b8015158114610fa757600080fd5b60008060408385031215611fd957600080fd5b8235611fe481611e00565b91506020830135611ff481611fb8565b809150509250929050565b6000806000806080858703121561201557600080fd5b843561202081611e00565b9350602085013561203081611e00565b925060408501359150606085013567ffffffffffffffff81111561205357600080fd5b8501601f8101871361206457600080fd5b61207387823560208401611ef9565b91505092959194509250565b6000806040838503121561209257600080fd5b823561209d81611e00565b91506020830135611ff481611e00565b600181811c908216806120c157607f821691505b6020821081036120e157634e487b7160e01b600052602260045260246000fd5b50919050565b6020808252602d908201527f4552433732313a2063616c6c6572206973206e6f7420746f6b656e206f776e6560408201526c1c881bdc88185c1c1c9bdd9959609a1b606082015260800190565b634e487b7160e01b600052601160045260246000fd5b8082018082111561060657610606612134565b808202811582820484141761060657610606612134565b60006001820161218657612186612134565b5060010190565b634e487b7160e01b600052603260045260246000fd5b601f8211156107e757600081815260208120601f850160051c810160208610156121ca5750805b601f850160051c820191505b818110156121e9578281556001016121d6565b505050505050565b815167ffffffffffffffff81111561220b5761220b611ee3565b61221f8161221984546120ad565b846121a3565b602080601f831160018114612254576000841561223c5750858301515b600019600386901b1c1916600185901b1785556121e9565b600085815260208120601f198616915b8281101561228357888601518255948401946001909101908401612264565b50858210156122a15787850151600019600388901b60f8161c191681555b5050505050600190811b01905550565b6000845160206122c48285838a01611d84565b8551918401916122d78184848a01611d84565b85549201916000906122e8816120ad565b60018281168015612300576001811461231557612341565b60ff1984168752821515830287019450612341565b896000528560002060005b8481101561233957815489820152908301908701612320565b505082870194505b50929a9950505050505050505050565b60006020828403121561236357600080fd5b5051919050565b60006020828403121561237c57600080fd5b8151610f1681611fb8565b8181038181111561060657610606612134565b60208082526025908201527f4552433732313a207472616e736665722066726f6d20696e636f72726563742060408201526437bbb732b960d91b606082015260800190565b60208082526032908201527f4552433732313a207472616e7366657220746f206e6f6e20455243373231526560408201527131b2b4bb32b91034b6b83632b6b2b73a32b960711b606082015260800190565b6001600160a01b038581168252841660208201526040810183905260806060820181905260009061246490830184611da8565b9695505050505050565b60006020828403121561248057600080fd5b8151610f1681611d51565b634e487b7160e01b600052603160045260246000fdfea2646970667358221220c9bc041bb951bf4a7e6c69bdb9e294caea47ad988b4bea0cf6180965316197b964736f6c634300081100334552433732313a207472616e7366657220746f206e6f6e204552433732315265",
    "linkReferences": {}
  },
  "methodIdentifiers": {
    "approve(address,uint256)": "095ea7b3",
    "balanceOf(address)": "70a08231",
    "baseExtension()": "c6682862",
    "baseURI()": "6c0360eb",
    "cost()": "13faede6",
    "getApproved(uint256)": "081812fc",
    "isApprovedForAll(address,address)": "e985e9c5",
    "maxMintAmount()": "239c70ae",
    "maxSupply()": "d5abeb01",
    "mint(address,uint256)": "40c10f19",
    "name()": "06fdde03",
    "owner()": "8da5cb5b",
    "ownerOf(uint256)": "6352211e",
    "renounceOwnership()": "715018a6",
    "safeTransferFrom(address,address,uint256)": "42842e0e",
    "safeTransferFrom(address,address,uint256,bytes)": "b88d4fde",
    "setApprovalForAll(address,bool)": "a22cb465",
    "setBaseExtension(string)": "da3ef23f",
    "setBaseURI(string)": "55f804b3",
    "setCost(uint256)": "44a0d68a",
    "setMaxMintAmount(uint256)": "088a4ed0",
    "supportsInterface(bytes4)": "01ffc9a7",
    "symbol()": "95d89b41",
    "tokenByIndex(uint256)": "4f6ccce7",
    "tokenOfOwnerByIndex(address,uint256)": "2f745c59",
    "tokenURI(uint256)": "c87b56dd",
    "totalSupply()": "18160ddd",
    "transferFrom(address,address,uint256)": "23b872dd",
    "transferOwnership(address)": "f2fde38b",
    "walletOfOwner(address)": "438b6300",
    "withdraw()": "3ccfd60b",
    "withdrawERC20(address)": "f4f3b200"
  },
  "id": 51
}