{
  "abi": [
    {
      "anonymous": false,
      "inputs": [
        {
          "indexed": true,
          "internalType": "address",
          "name": "owner",
          "type": "address"
        },
        {
          "indexed": true,
          "internalType": "address",
          "name": "approved",
          "type": "address"
        },
        {
          "indexed": true,
          "internalType": "uint256",
          "name": "tokenId",
          "type": "uint256"
        }
      ],
      "name": "Approval",
      "type": "event"
    },
    {
      "anonymous": false,
      "inputs": [
        {
          "indexed": true,
          "internalType": "address",
          "name": "owner",
          "type": "address"
        },
        {
          "indexed": true,
          "internalType": "address",
          "name": "operator",
          "type": "address"
        },
        {
          "indexed": false,
          "internalType": "bool",
          "name": "approved",
          "type": "bool"
        }
      ],
      "name": "ApprovalForAll",
      "type": "event"
    },
    {
      "anonymous": false,
      "inputs": [
        {
          "indexed": false,
          "internalType": "uint8",
          "name": "version",
          "type": "uint8"
        }
      ],
      "name": "Initialized",
      "type": "event"
    },
    {
      "anonymous": false,
      "inputs": [
        {
          "indexed": true,
          "internalType": "address",
          "name": "previousOwner",
          "type": "address"
        },
        {
          "indexed": true,
          "internalType": "address",
          "name": "newOwner",
          "type": "address"
        }
      ],
      "name": "OwnershipTransferred",
      "type": "event"
    },
    {
      "anonymous": false,
      "inputs": [
        {
          "indexed": true,
          "internalType": "address",
          "name": "from",
          "type": "address"
        },
        {
          "indexed": true,
          "internalType": "address",
          "name": "to",
          "type": "address"
        },
        {
          "indexed": true,
          "internalType": "uint256",
          "name": "tokenId",
          "type": "uint256"
        }
      ],
      "name": "Transfer",
      "type": "event"
    },
    {
      "inputs": [
        {
          "internalType": "address",
          "name": "to",
          "type": "address"
        },
        {
          "internalType": "uint256",
          "name": "tokenId",
          "type": "uint256"
        }
      ],
      "name": "approve",
      "outputs": [],
      "stateMutability": "nonpayable",
      "type": "function"
    },
    {
      "inputs": [
        {
          "internalType": "address",
          "name": "owner",
          "type": "address"
        }
      ],
      "name": "balanceOf",
      "outputs": [
        {
          "internalType": "uint256",
          "name": "",
          "type": "uint256"
        }
      ],
      "stateMutability": "view",
      "type": "function"
    },
    {
      "inputs": [],
      "name": "baseExtension",
      "outputs": [
        {
          "internalType": "string",
          "name": "",
          "type": "string"
        }
      ],
      "stateMutability": "view",
      "type": "function"
    },
    {
      "inputs": [],
      "name": "baseURI",
      "outputs": [
        {
          "internalType": "string",
          "name": "",
          "type": "string"
        }
      ],
      "stateMutability": "view",
      "type": "function"
    },
    {
      "inputs": [
        {
          "internalType": "uint256",
          "name": "tokenId",
          "type": "uint256"
        }
      ],
      "name": "carbonize",
      "outputs": [],
      "stateMutability": "payable",
      "type": "function"
    },
    {
      "inputs": [
        {
          "internalType": "uint256",
          "name": "",
          "type": "uint256"
        }
      ],
      "name": "carbonizer",
      "outputs": [
        {
          "internalType": "address",
          "name": "",
          "type": "address"
        }
      ],
      "stateMutability": "view",
      "type": "function"
    },
    {
      "inputs": [
        {
          "internalType": "uint256",
          "name": "tokenId",
          "type": "uint256"
        }
      ],
      "name": "decarbonize",
      "outputs": [],
      "stateMutability": "nonpayable",
      "type": "function"
    },
    {
      "inputs": [],
      "name": "deployer",
      "outputs": [
        {
          "internalType": "contract ICarbonizerDeployer",
          "name": "",
          "type": "address"
        }
      ],
      "stateMutability": "view",
      "type": "function"
    },
    {
      "inputs": [
        {
          "internalType": "uint256",
          "name": "tokenId",
          "type": "uint256"
        }
      ],
      "name": "exists",
      "outputs": [
        {
          "internalType": "bool",
          "name": "",
          "type": "bool"
        }
      ],
      "stateMutability": "view",
      "type": "function"
    },
    {
      "inputs": [
        {
          "internalType": "uint256",
          "name": "tokenId",
          "type": "uint256"
        }
      ],
      "name": "getApproved",
      "outputs": [
        {
          "internalType": "address",
          "name": "",
          "type": "address"
        }
      ],
      "stateMutability": "view",
      "type": "function"
    },
    {
      "inputs": [
        {
          "internalType": "uint256",
          "name": "tokenId",
          "type": "uint256"
        }
      ],
      "name": "getDeposit",
      "outputs": [
        {
          "internalType": "uint256",
          "name": "",
          "type": "uint256"
        }
      ],
      "stateMutability": "view",
      "type": "function"
    },
    {
      "inputs": [
        {
          "internalType": "uint256",
          "name": "tokenId",
          "type": "uint256"
        }
      ],
      "name": "getYield",
      "outputs": [
        {
          "internalType": "uint256",
          "name": "",
          "type": "uint256"
        }
      ],
      "stateMutability": "view",
      "type": "function"
    },
    {
      "inputs": [
        {
          "internalType": "address",
          "name": "_originalCollection",
          "type": "address"
        },
        {
          "internalType": "address",
          "name": "_deployer",
          "type": "address"
        },
        {
          "internalType": "string",
          "name": "_name",
          "type": "string"
        },
        {
          "internalType": "string",
          "name": "_symbol",
          "type": "string"
        },
        {
          "internalType": "string",
          "name": "_baseURI",
          "type": "string"
        }
      ],
      "name": "initialize",
      "outputs": [],
      "stateMutability": "nonpayable",
      "type": "function"
    },
    {
      "inputs": [
        {
          "internalType": "address",
          "name": "owner",
          "type": "address"
        },
        {
          "internalType": "address",
          "name": "operator",
          "type": "address"
        }
      ],
      "name": "isApprovedForAll",
      "outputs": [
        {
          "internalType": "bool",
          "name": "",
          "type": "bool"
        }
      ],
      "stateMutability": "view",
      "type": "function"
    },
    {
      "inputs": [],
      "name": "name",
      "outputs": [
        {
          "internalType": "string",
          "name": "",
          "type": "string"
        }
      ],
      "stateMutability": "view",
      "type": "function"
    },
    {
      "inputs": [
        {
          "internalType": "address",
          "name": "",
          "type": "address"
        },
        {
          "internalType": "address",
          "name": "",
          "type": "address"
        },
        {
          "internalType": "uint256",
          "name": "",
          "type": "uint256"
        },
        {
          "internalType": "bytes",
          "name": "",
          "type": "bytes"
        }
      ],
      "name": "onERC721Received",
      "outputs": [
        {
          "internalType": "bytes4",
          "name": "",
          "type": "bytes4"
        }
      ],
      "stateMutability": "pure",
      "type": "function"
    },
    {
      "inputs": [],
      "name": "originalCollection",
      "outputs": [
        {
          "internalType": "contract IERC721Upgradeable",
          "name": "",
          "type": "address"
        }
      ],
      "stateMutability": "view",
      "type": "function"
    },
    {
      "inputs": [],
      "name": "owner",
      "outputs": [
        {
          "internalType": "address",
          "name": "",
          "type": "address"
        }
      ],
      "stateMutability": "view",
      "type": "function"
    },
    {
      "inputs": [
        {
          "internalType": "uint256",
          "name": "tokenId",
          "type": "uint256"
        }
      ],
      "name": "ownerOf",
      "outputs": [
        {
          "internalType": "address",
          "name": "",
          "type": "address"
        }
      ],
      "stateMutability": "view",
      "type": "function"
    },
    {
      "inputs": [],
      "name": "renounceOwnership",
      "outputs": [],
      "stateMutability": "nonpayable",
      "type": "function"
    },
    {
      "inputs": [
        {
          "internalType": "address",
          "name": "from",
          "type": "address"
        },
        {
          "internalType": "address",
          "name": "to",
          "type": "address"
        },
        {
          "internalType": "uint256",
          "name": "tokenId",
          "type": "uint256"
        }
      ],
      "name": "safeTransferFrom",
      "outputs": [],
      "stateMutability": "nonpayable",
      "type": "function"
    },
    {
      "inputs": [
        {
          "internalType": "address",
          "name": "from",
          "type": "address"
        },
        {
          "internalType": "address",
          "name": "to",
          "type": "address"
        },
        {
          "internalType": "uint256",
          "name": "tokenId",
          "type": "uint256"
        },
        {
          "internalType": "bytes",
          "name": "data",
          "type": "bytes"
        }
      ],
      "name": "safeTransferFrom",
      "outputs": [],
      "stateMutability": "nonpayable",
      "type": "function"
    },
    {
      "inputs": [
        {
          "internalType": "address",
          "name": "operator",
          "type": "address"
        },
        {
          "internalType": "bool",
          "name": "approved",
          "type": "bool"
        }
      ],
      "name": "setApprovalForAll",
      "outputs": [],
      "stateMutability": "nonpayable",
      "type": "function"
    },
    {
      "inputs": [
        {
          "internalType": "uint256",
          "name": "tokenId",
          "type": "uint256"
        }
      ],
      "name": "startDecarbonize",
      "outputs": [],
      "stateMutability": "nonpayable",
      "type": "function"
    },
    {
      "inputs": [
        {
          "internalType": "bytes4",
          "name": "interfaceId",
          "type": "bytes4"
        }
      ],
      "name": "supportsInterface",
      "outputs": [
        {
          "internalType": "bool",
          "name": "",
          "type": "bool"
        }
      ],
      "stateMutability": "view",
      "type": "function"
    },
    {
      "inputs": [],
      "name": "symbol",
      "outputs": [
        {
          "internalType": "string",
          "name": "",
          "type": "string"
        }
      ],
      "stateMutability": "view",
      "type": "function"
    },
    {
      "inputs": [
        {
          "internalType": "uint256",
          "name": "index",
          "type": "uint256"
        }
      ],
      "name": "tokenByIndex",
      "outputs": [
        {
          "internalType": "uint256",
          "name": "",
          "type": "uint256"
        }
      ],
      "stateMutability": "view",
      "type": "function"
    },
    {
      "inputs": [
        {
          "internalType": "address",
          "name": "owner",
          "type": "address"
        },
        {
          "internalType": "uint256",
          "name": "index",
          "type": "uint256"
        }
      ],
      "name": "tokenOfOwnerByIndex",
      "outputs": [
        {
          "internalType": "uint256",
          "name": "",
          "type": "uint256"
        }
      ],
      "stateMutability": "view",
      "type": "function"
    },
    {
      "inputs": [
        {
          "internalType": "uint256",
          "name": "tokenId",
          "type": "uint256"
        }
      ],
      "name": "tokenURI",
      "outputs": [
        {
          "internalType": "string",
          "name": "",
          "type": "string"
        }
      ],
      "stateMutability": "view",
      "type": "function"
    },
    {
      "inputs": [],
      "name": "totalSupply",
      "outputs": [
        {
          "internalType": "uint256",
          "name": "",
          "type": "uint256"
        }
      ],
      "stateMutability": "view",
      "type": "function"
    },
    {
      "inputs": [
        {
          "internalType": "address",
          "name": "from",
          "type": "address"
        },
        {
          "internalType": "address",
          "name": "to",
          "type": "address"
        },
        {
          "internalType": "uint256",
          "name": "tokenId",
          "type": "uint256"
        }
      ],
      "name": "transferFrom",
      "outputs": [],
      "stateMutability": "nonpayable",
      "type": "function"
    },
    {
      "inputs": [
        {
          "internalType": "address",
          "name": "newOwner",
          "type": "address"
        }
      ],
      "name": "transferOwnership",
      "outputs": [],
      "stateMutability": "nonpayable",
      "type": "function"
    },
    {
      "inputs": [
        {
          "internalType": "address",
          "name": "_owner",
          "type": "address"
        }
      ],
      "name": "walletOfOwner",
      "outputs": [
        {
          "internalType": "uint256[]",
          "name": "",
          "type": "uint256[]"
        },
        {
          "internalType": "address[]",
          "name": "",
          "type": "address[]"
        }
      ],
      "stateMutability": "view",
      "type": "function"
    },
    {
      "inputs": [
        {
          "internalType": "uint256",
          "name": "tokenId",
          "type": "uint256"
        }
      ],
      "name": "withdrawls",
      "outputs": [
        {
          "internalType": "uint256",
          "name": "value",
          "type": "uint256"
        },
        {
          "internalType": "uint256",
          "name": "timestamp",
          "type": "uint256"
        }
      ],
      "stateMutability": "view",
      "type": "function"
    }
  ],
  "bytecode": {
    "object": "0x608060405234801561001057600080fd5b50612b64806100206000396000f3fe6080604052600436106101f95760003560e01c80636c0360eb1161010d578063b88d4fde116100a0578063e0a96bc91161006f578063e0a96bc9146105f8578063e985e9c514610618578063eceac7bf14610661578063f2fde38b14610681578063fe6838a5146106a157600080fd5b8063b88d4fde14610583578063c6682862146105a3578063c87b56dd146105b8578063d5f39488146105d857600080fd5b806395d89b41116100dc57806395d89b41146104f95780639f9fb9681461050e578063a22cb4651461052e578063ac687cc41461054e57600080fd5b80636c0360eb1461049157806370a08231146104a6578063715018a6146104c65780638da5cb5b146104db57600080fd5b80632f745c5911610190578063438b63001161015f578063438b6300146103e35780634f558e79146104115780634f6ccce71461043157806361dd277e146104515780636352211e1461047157600080fd5b80632f745c59146103705780633a781dc1146103905780633f2f5ee2146103a357806342842e0e146103c357600080fd5b8063095ea7b3116101cc578063095ea7b3146102bb578063150b7a02146102dd57806318160ddd1461033b57806323b872dd1461035057600080fd5b806301ffc9a7146101fe57806306fdde03146102335780630805d88414610255578063081812fc14610283575b600080fd5b34801561020a57600080fd5b5061021e6102193660046122ba565b6106d7565b60405190151581526020015b60405180910390f35b34801561023f57600080fd5b50610248610702565b60405161022a9190612327565b34801561026157600080fd5b5061027561027036600461233a565b610794565b60405190815260200161022a565b34801561028f57600080fd5b506102a361029e36600461233a565b61080a565b6040516001600160a01b03909116815260200161022a565b3480156102c757600080fd5b506102db6102d6366004612368565b610831565b005b3480156102e957600080fd5b506103226102f8366004612394565b7f150b7a023d4804d13e8c85fb27262cb750cf6ba9f9dd3bb30d90f482ceeb4b1f95945050505050565b6040516001600160e01b0319909116815260200161022a565b34801561034757600080fd5b5060cb54610275565b34801561035c57600080fd5b506102db61036b366004612433565b61094b565b34801561037c57600080fd5b5061027561038b366004612368565b61097c565b6102db61039e36600461233a565b610a12565b3480156103af57600080fd5b506102db6103be366004612520565b610bb3565b3480156103cf57600080fd5b506102db6103de366004612433565b610d39565b3480156103ef57600080fd5b506104036103fe3660046125ce565b610d54565b60405161022a9291906125eb565b34801561041d57600080fd5b5061021e61042c36600461233a565b610ead565b34801561043d57600080fd5b5061027561044c36600461233a565b610ecc565b34801561045d57600080fd5b5060fb546102a3906001600160a01b031681565b34801561047d57600080fd5b506102a361048c36600461233a565b610f5f565b34801561049d57600080fd5b50610248610fbf565b3480156104b257600080fd5b506102756104c13660046125ce565b61104d565b3480156104d257600080fd5b506102db6110d3565b3480156104e757600080fd5b506033546001600160a01b03166102a3565b34801561050557600080fd5b506102486110e7565b34801561051a57600080fd5b5061027561052936600461233a565b6110f6565b34801561053a57600080fd5b506102db61054936600461266f565b611148565b34801561055a57600080fd5b5061056e61056936600461233a565b611157565b6040805192835260208301919091520161022a565b34801561058f57600080fd5b506102db61059e3660046126ad565b6111d6565b3480156105af57600080fd5b5061024861120e565b3480156105c457600080fd5b506102486105d336600461233a565b61121b565b3480156105e457600080fd5b5060fc546102a3906001600160a01b031681565b34801561060457600080fd5b506102db61061336600461233a565b61128f565b34801561062457600080fd5b5061021e61063336600461272d565b6001600160a01b039182166000908152609c6020908152604080832093909416825291909152205460ff1690565b34801561066d57600080fd5b506102db61067c36600461233a565b611378565b34801561068d57600080fd5b506102db61069c3660046125ce565b611454565b3480156106ad57600080fd5b506102a36106bc36600461233a565b60ff602052600090815260409020546001600160a01b031681565b60006001600160e01b0319821663780e9d6360e01b14806106fc57506106fc826114ca565b92915050565b6060609780546107119061275b565b80601f016020809104026020016040519081016040528092919081815260200182805461073d9061275b565b801561078a5780601f1061075f5761010080835404028352916020019161078a565b820191906000526020600020905b81548152906001019060200180831161076d57829003601f168201915b5050505050905090565b600081815260ff60209081526040808320548151637c26287160e01b815291516001600160a01b0390911692637c26287192600480820193918290030181865afa1580156107e6573d6000803e3d6000fd5b505050506040513d601f19601f820116820180604052508101906106fc9190612795565b60006108158261151a565b506000908152609b60205260409020546001600160a01b031690565b600061083c82610f5f565b9050806001600160a01b0316836001600160a01b0316036108ae5760405162461bcd60e51b815260206004820152602160248201527f4552433732313a20617070726f76616c20746f2063757272656e74206f776e656044820152603960f91b60648201526084015b60405180910390fd5b336001600160a01b03821614806108ca57506108ca8133610633565b61093c5760405162461bcd60e51b815260206004820152603d60248201527f4552433732313a20617070726f76652063616c6c6572206973206e6f7420746f60448201527f6b656e206f776e6572206f7220617070726f76656420666f7220616c6c00000060648201526084016108a5565b6109468383611579565b505050565b61095533826115e7565b6109715760405162461bcd60e51b81526004016108a5906127ae565b610946838383611666565b60006109878361104d565b82106109e95760405162461bcd60e51b815260206004820152602b60248201527f455243373231456e756d657261626c653a206f776e657220696e646578206f7560448201526a74206f6620626f756e647360a81b60648201526084016108a5565b506001600160a01b0391909116600090815260c960209081526040808320938352929052205490565b600081815260ff60205260409020546001600160a01b0316610ac95760fc54604051634c96a38960e01b81523060048201526001600160a01b0390911690634c96a389906024016020604051808303816000875af1158015610a78573d6000803e3d6000fd5b505050506040513d601f19601f82011682018060405250810190610a9c91906127fb565b600082815260ff6020526040902080546001600160a01b0319166001600160a01b03929092169190911790555b610ad281610ead565b610b495760fb54604051632142170760e11b8152336004820152306024820152604481018390526001600160a01b03909116906342842e0e90606401600060405180830381600087803b158015610b2857600080fd5b505af1158015610b3c573d6000803e3d6000fd5b50505050610b49816117d7565b600081815260ff6020526040808220548151630d0e30db60e41b815291516001600160a01b039091169263d0e30db09234926004808301939282900301818588803b158015610b9757600080fd5b505af1158015610bab573d6000803e3d6000fd5b505050505050565b600054610100900460ff1615808015610bd35750600054600160ff909116105b80610bed5750303b158015610bed575060005460ff166001145b610c505760405162461bcd60e51b815260206004820152602e60248201527f496e697469616c697a61626c653a20636f6e747261637420697320616c72656160448201526d191e481a5b9a5d1a585b1a5e995960921b60648201526084016108a5565b6000805460ff191660011790558015610c73576000805461ff0019166101001790555b610c7b6117e1565b610c858484611810565b60fb80546001600160a01b038089166001600160a01b03199283161790925560fc805492881692909116919091179055604080518082019091526005815264173539b7b760d91b602082015260fe90610cde908261285e565b5060fd610ceb838261285e565b508015610bab576000805461ff0019169055604051600181527f7f26b83ff96e1f2b6a682f133852f6798a09c465da95921460cefb38474024989060200160405180910390a1505050505050565b610946838383604051806020016040528060008152506111d6565b6060806000610d628461104d565b905060008167ffffffffffffffff811115610d7f57610d7f612474565b604051908082528060200260200182016040528015610da8578160200160208202803683370190505b50905060008267ffffffffffffffff811115610dc657610dc6612474565b604051908082528060200260200182016040528015610def578160200160208202803683370190505b50905060005b83811015610ea157610e07878261097c565b838281518110610e1957610e1961291e565b60200260200101818152505060ff6000848381518110610e3b57610e3b61291e565b6020026020010151815260200190815260200160002060009054906101000a90046001600160a01b0316828281518110610e7757610e7761291e565b6001600160a01b039092166020928302919091019091015280610e998161294a565b915050610df5565b50909590945092505050565b6000818152609960205260408120546001600160a01b031615156106fc565b6000610ed760cb5490565b8210610f3a5760405162461bcd60e51b815260206004820152602c60248201527f455243373231456e756d657261626c653a20676c6f62616c20696e646578206f60448201526b7574206f6620626f756e647360a01b60648201526084016108a5565b60cb8281548110610f4d57610f4d61291e565b90600052602060002001549050919050565b6000818152609960205260408120546001600160a01b0316806106fc5760405162461bcd60e51b8152602060048201526018602482015277115490cdcc8c4e881a5b9d985b1a59081d1bdad95b88125160421b60448201526064016108a5565b60fd8054610fcc9061275b565b80601f0160208091040260200160405190810160405280929190818152602001828054610ff89061275b565b80156110455780601f1061101a57610100808354040283529160200191611045565b820191906000526020600020905b81548152906001019060200180831161102857829003601f168201915b505050505081565b60006001600160a01b0382166110b75760405162461bcd60e51b815260206004820152602960248201527f4552433732313a2061646472657373207a65726f206973206e6f7420612076616044820152683634b21037bbb732b960b91b60648201526084016108a5565b506001600160a01b03166000908152609a602052604090205490565b6110db611841565b6110e5600061189b565b565b6060609880546107119061275b565b600081815260ff602090815260408083205481516318733d9160e31b815291516001600160a01b039091169263c399ec8892600480820193918290030181865afa1580156107e6573d6000803e3d6000fd5b6111533383836118ed565b5050565b600081815260ff602052604080822054815163079abb1160e51b8152825184936001600160a01b039093169263f357622092600480820193918290030181865afa1580156111a9573d6000803e3d6000fd5b505050506040513d601f19601f820116820180604052508101906111cd9190612963565b91509150915091565b6111e033836115e7565b6111fc5760405162461bcd60e51b81526004016108a5906127ae565b611208848484846119bb565b50505050565b60fe8054610fcc9061275b565b60606112268261151a565b600061123d60408051602081019091526000815290565b9050600081511161125d5760405180602001604052806000815250611288565b80611267846119ee565b604051602001611278929190612987565b6040516020818303038152906040525b9392505050565b600081815260ff60205260409020546001600160a01b031661130b5760405162461bcd60e51b815260206004820152602f60248201527f436172626f6e697a6564436f6c6c656374696f6e3a20746f6b656e496420697360448201526e081b9bdd0818d85c989bdb9a5e9959608a1b60648201526084016108a5565b600081815260ff6020526040908190205490516351cff8d960e01b81523360048201526001600160a01b03909116906351cff8d990602401600060405180830381600087803b15801561135d57600080fd5b505af1158015611371573d6000803e3d6000fd5b5050505050565b60fb54604051632142170760e11b8152306004820152336024820152604481018390526001600160a01b03909116906342842e0e90606401600060405180830381600087803b1580156113ca57600080fd5b505af11580156113de573d6000803e3d6000fd5b505050600082815260ff6020526040808220548151634e71d92d60e01b815291516001600160a01b039091169350634e71d92d9260048084019391929182900301818387803b15801561143057600080fd5b505af1158015611444573d6000803e3d6000fd5b5050505061145181611a81565b50565b61145c611841565b6001600160a01b0381166114c15760405162461bcd60e51b815260206004820152602660248201527f4f776e61626c653a206e6577206f776e657220697320746865207a65726f206160448201526564647265737360d01b60648201526084016108a5565b6114518161189b565b60006001600160e01b031982166380ac58cd60e01b14806114fb57506001600160e01b03198216635b5e139f60e01b145b806106fc57506301ffc9a760e01b6001600160e01b03198316146106fc565b6000818152609960205260409020546001600160a01b03166114515760405162461bcd60e51b8152602060048201526018602482015277115490cdcc8c4e881a5b9d985b1a59081d1bdad95b88125160421b60448201526064016108a5565b6000818152609b6020526040902080546001600160a01b0319166001600160a01b03841690811790915581906115ae82610f5f565b6001600160a01b03167f8c5be1e5ebec7d5bd14f71427d1e84f3dd0314c0f7b2291e5b200ac8c7c3b92560405160405180910390a45050565b6000806115f383610f5f565b9050806001600160a01b0316846001600160a01b0316148061163a57506001600160a01b038082166000908152609c602090815260408083209388168352929052205460ff165b8061165e5750836001600160a01b03166116538461080a565b6001600160a01b0316145b949350505050565b826001600160a01b031661167982610f5f565b6001600160a01b03161461169f5760405162461bcd60e51b81526004016108a5906129b6565b6001600160a01b0382166117015760405162461bcd60e51b8152602060048201526024808201527f4552433732313a207472616e7366657220746f20746865207a65726f206164646044820152637265737360e01b60648201526084016108a5565b61170e8383836001611b24565b826001600160a01b031661172182610f5f565b6001600160a01b0316146117475760405162461bcd60e51b81526004016108a5906129b6565b6000818152609b6020908152604080832080546001600160a01b03199081169091556001600160a01b03878116808652609a8552838620805460001901905590871680865283862080546001019055868652609990945282852080549092168417909155905184937fddf252ad1be2c89b69c2b068fc378daa952ba7f163c4a11628f55a4df523b3ef91a4505050565b6114513382611c5d565b600054610100900460ff166118085760405162461bcd60e51b81526004016108a5906129fb565b6110e5611c77565b600054610100900460ff166118375760405162461bcd60e51b81526004016108a5906129fb565b6111538282611ca7565b6033546001600160a01b031633146110e55760405162461bcd60e51b815260206004820181905260248201527f4f776e61626c653a2063616c6c6572206973206e6f7420746865206f776e657260448201526064016108a5565b603380546001600160a01b038381166001600160a01b0319831681179093556040519116919082907f8be0079c531659141344cd1fd0a4f28419497f9722a3daafe3b4186f6b6457e090600090a35050565b816001600160a01b0316836001600160a01b03160361194e5760405162461bcd60e51b815260206004820152601960248201527f4552433732313a20617070726f766520746f2063616c6c65720000000000000060448201526064016108a5565b6001600160a01b038381166000818152609c6020908152604080832094871680845294825291829020805460ff191686151590811790915591519182527f17307eab39ab6107e8899845ad3d59bd9653f200f220920489ca2b5937696c31910160405180910390a3505050565b6119c6848484611666565b6119d284848484611ce7565b6112085760405162461bcd60e51b81526004016108a590612a46565b606060006119fb83611de8565b600101905060008167ffffffffffffffff811115611a1b57611a1b612474565b6040519080825280601f01601f191660200182016040528015611a45576020820181803683370190505b5090508181016020015b600019016f181899199a1a9b1b9c1cb0b131b232b360811b600a86061a8153600a8504945084611a4f57509392505050565b6000611a8c82610f5f565b9050611a9c816000846001611b24565b611aa582610f5f565b6000838152609b6020908152604080832080546001600160a01b03199081169091556001600160a01b038516808552609a845282852080546000190190558785526099909352818420805490911690555192935084927fddf252ad1be2c89b69c2b068fc378daa952ba7f163c4a11628f55a4df523b3ef908390a45050565b611b3084848484611ec0565b6001811115611b9f5760405162461bcd60e51b815260206004820152603560248201527f455243373231456e756d657261626c653a20636f6e7365637574697665207472604482015274185b9cd9995c9cc81b9bdd081cdd5c1c1bdc9d1959605a1b60648201526084016108a5565b816001600160a01b038516611bfb57611bf68160cb8054600083815260cc60205260408120829055600182018355919091527fa7ce836d032b2bf62b7e2097a8e0a6d8aeb35405ad15271e96d3b0188a1d06fb0155565b611c1e565b836001600160a01b0316856001600160a01b031614611c1e57611c1e8582611f48565b6001600160a01b038416611c3a57611c3581611fe5565b611371565b846001600160a01b0316846001600160a01b031614611371576113718482612094565b6111538282604051806020016040528060008152506120d8565b600054610100900460ff16611c9e5760405162461bcd60e51b81526004016108a5906129fb565b6110e53361189b565b600054610100900460ff16611cce5760405162461bcd60e51b81526004016108a5906129fb565b6097611cda838261285e565b506098610946828261285e565b60006001600160a01b0384163b15611ddd57604051630a85bd0160e11b81526001600160a01b0385169063150b7a0290611d2b903390899088908890600401612a98565b6020604051808303816000875af1925050508015611d66575060408051601f3d908101601f19168201909252611d6391810190612ad5565b60015b611dc3573d808015611d94576040519150601f19603f3d011682016040523d82523d6000602084013e611d99565b606091505b508051600003611dbb5760405162461bcd60e51b81526004016108a590612a46565b805181602001fd5b6001600160e01b031916630a85bd0160e11b14905061165e565b506001949350505050565b60008072184f03e93ff9f4daa797ed6e38ed64bf6a1f0160401b8310611e275772184f03e93ff9f4daa797ed6e38ed64bf6a1f0160401b830492506040015b6d04ee2d6d415b85acef81000000008310611e53576d04ee2d6d415b85acef8100000000830492506020015b662386f26fc100008310611e7157662386f26fc10000830492506010015b6305f5e1008310611e89576305f5e100830492506008015b6127108310611e9d57612710830492506004015b60648310611eaf576064830492506002015b600a83106106fc5760010192915050565b6001811115611208576001600160a01b03841615611f06576001600160a01b0384166000908152609a602052604081208054839290611f00908490612af2565b90915550505b6001600160a01b03831615611208576001600160a01b0383166000908152609a602052604081208054839290611f3d908490612b05565b909155505050505050565b60006001611f558461104d565b611f5f9190612af2565b600083815260ca6020526040902054909150808214611fb2576001600160a01b038416600090815260c960209081526040808320858452825280832054848452818420819055835260ca90915290208190555b50600091825260ca602090815260408084208490556001600160a01b03909416835260c981528383209183525290812055565b60cb54600090611ff790600190612af2565b600083815260cc602052604081205460cb805493945090928490811061201f5761201f61291e565b906000526020600020015490508060cb83815481106120405761204061291e565b600091825260208083209091019290925582815260cc909152604080822084905585825281205560cb80548061207857612078612b18565b6001900381819060005260206000200160009055905550505050565b600061209f8361104d565b6001600160a01b03909316600090815260c960209081526040808320868452825280832085905593825260ca9052919091209190915550565b6120e2838361210b565b6120ef6000848484611ce7565b6109465760405162461bcd60e51b81526004016108a590612a46565b6001600160a01b0382166121615760405162461bcd60e51b815260206004820181905260248201527f4552433732313a206d696e7420746f20746865207a65726f206164647265737360448201526064016108a5565b6000818152609960205260409020546001600160a01b0316156121c65760405162461bcd60e51b815260206004820152601c60248201527f4552433732313a20746f6b656e20616c7265616479206d696e7465640000000060448201526064016108a5565b6121d4600083836001611b24565b6000818152609960205260409020546001600160a01b0316156122395760405162461bcd60e51b815260206004820152601c60248201527f4552433732313a20746f6b656e20616c7265616479206d696e7465640000000060448201526064016108a5565b6001600160a01b0382166000818152609a6020908152604080832080546001019055848352609990915280822080546001600160a01b0319168417905551839291907fddf252ad1be2c89b69c2b068fc378daa952ba7f163c4a11628f55a4df523b3ef908290a45050565b6001600160e01b03198116811461145157600080fd5b6000602082840312156122cc57600080fd5b8135611288816122a4565b60005b838110156122f25781810151838201526020016122da565b50506000910152565b600081518084526123138160208601602086016122d7565b601f01601f19169290920160200192915050565b60208152600061128860208301846122fb565b60006020828403121561234c57600080fd5b5035919050565b6001600160a01b038116811461145157600080fd5b6000806040838503121561237b57600080fd5b823561238681612353565b946020939093013593505050565b6000806000806000608086880312156123ac57600080fd5b85356123b781612353565b945060208601356123c781612353565b935060408601359250606086013567ffffffffffffffff808211156123eb57600080fd5b818801915088601f8301126123ff57600080fd5b81358181111561240e57600080fd5b89602082850101111561242057600080fd5b9699959850939650602001949392505050565b60008060006060848603121561244857600080fd5b833561245381612353565b9250602084013561246381612353565b929592945050506040919091013590565b634e487b7160e01b600052604160045260246000fd5b600067ffffffffffffffff808411156124a5576124a5612474565b604051601f8501601f19908116603f011681019082821181831017156124cd576124cd612474565b816040528093508581528686860111156124e657600080fd5b858560208301376000602087830101525050509392505050565b600082601f83011261251157600080fd5b6112888383356020850161248a565b600080600080600060a0868803121561253857600080fd5b853561254381612353565b9450602086013561255381612353565b9350604086013567ffffffffffffffff8082111561257057600080fd5b61257c89838a01612500565b9450606088013591508082111561259257600080fd5b61259e89838a01612500565b935060808801359150808211156125b457600080fd5b506125c188828901612500565b9150509295509295909350565b6000602082840312156125e057600080fd5b813561128881612353565b604080825283519082018190526000906020906060840190828701845b8281101561262457815184529284019290840190600101612608565b5050508381038285015284518082528583019183019060005b818110156126625783516001600160a01b03168352928401929184019160010161263d565b5090979650505050505050565b6000806040838503121561268257600080fd5b823561268d81612353565b9150602083013580151581146126a257600080fd5b809150509250929050565b600080600080608085870312156126c357600080fd5b84356126ce81612353565b935060208501356126de81612353565b925060408501359150606085013567ffffffffffffffff81111561270157600080fd5b8501601f8101871361271257600080fd5b6127218782356020840161248a565b91505092959194509250565b6000806040838503121561274057600080fd5b823561274b81612353565b915060208301356126a281612353565b600181811c9082168061276f57607f821691505b60208210810361278f57634e487b7160e01b600052602260045260246000fd5b50919050565b6000602082840312156127a757600080fd5b5051919050565b6020808252602d908201527f4552433732313a2063616c6c6572206973206e6f7420746f6b656e206f776e6560408201526c1c881bdc88185c1c1c9bdd9959609a1b606082015260800190565b60006020828403121561280d57600080fd5b815161128881612353565b601f82111561094657600081815260208120601f850160051c8101602086101561283f5750805b601f850160051c820191505b81811015610bab5782815560010161284b565b815167ffffffffffffffff81111561287857612878612474565b61288c81612886845461275b565b84612818565b602080601f8311600181146128c157600084156128a95750858301515b600019600386901b1c1916600185901b178555610bab565b600085815260208120601f198616915b828110156128f0578886015182559484019460019091019084016128d1565b508582101561290e5787850151600019600388901b60f8161c191681555b5050505050600190811b01905550565b634e487b7160e01b600052603260045260246000fd5b634e487b7160e01b600052601160045260246000fd5b60006001820161295c5761295c612934565b5060010190565b6000806040838503121561297657600080fd5b505080516020909101519092909150565b600083516129998184602088016122d7565b8351908301906129ad8183602088016122d7565b01949350505050565b60208082526025908201527f4552433732313a207472616e736665722066726f6d20696e636f72726563742060408201526437bbb732b960d91b606082015260800190565b6020808252602b908201527f496e697469616c697a61626c653a20636f6e7472616374206973206e6f74206960408201526a6e697469616c697a696e6760a81b606082015260800190565b60208082526032908201527f4552433732313a207472616e7366657220746f206e6f6e20455243373231526560408201527131b2b4bb32b91034b6b83632b6b2b73a32b960711b606082015260800190565b6001600160a01b0385811682528416602082015260408101839052608060608201819052600090612acb908301846122fb565b9695505050505050565b600060208284031215612ae757600080fd5b8151611288816122a4565b818103818111156106fc576106fc612934565b808201808211156106fc576106fc612934565b634e487b7160e01b600052603160045260246000fdfea26469706673582212201cb50d75b496a9aecedc0a52259f08edaf2187376d9883181afe4de25bd38cc864736f6c63430008110033",
    "linkReferences": {}
  },
  "methodIdentifiers": {
    "approve(address,uint256)": "095ea7b3",
    "balanceOf(address)": "70a08231",
    "baseExtension()": "c6682862",
    "baseURI()": "6c0360eb",
    "carbonize(uint256)": "3a781dc1",
    "carbonizer(uint256)": "fe6838a5",
    "decarbonize(uint256)": "eceac7bf",
    "deployer()": "d5f39488",
    "exists(uint256)": "4f558e79",
    "getApproved(uint256)": "081812fc",
    "getDeposit(uint256)": "9f9fb968",
    "getYield(uint256)": "0805d884",
    "initialize(address,address,string,string,string)": "3f2f5ee2",
    "isApprovedForAll(address,address)": "e985e9c5",
    "name()": "06fdde03",
    "onERC721Received(address,address,uint256,bytes)": "150b7a02",
    "originalCollection()": "61dd277e",
    "owner()": "8da5cb5b",
    "ownerOf(uint256)": "6352211e",
    "renounceOwnership()": "715018a6",
    "safeTransferFrom(address,address,uint256)": "42842e0e",
    "safeTransferFrom(address,address,uint256,bytes)": "b88d4fde",
    "setApprovalForAll(address,bool)": "a22cb465",
    "startDecarbonize(uint256)": "e0a96bc9",
    "supportsInterface(bytes4)": "01ffc9a7",
    "symbol()": "95d89b41",
    "tokenByIndex(uint256)": "4f6ccce7",
    "tokenOfOwnerByIndex(address,uint256)": "2f745c59",
    "tokenURI(uint256)": "c87b56dd",
    "totalSupply()": "18160ddd",
    "transferFrom(address,address,uint256)": "23b872dd",
    "transferOwnership(address)": "f2fde38b",
    "walletOfOwner(address)": "438b6300",
    "withdrawls(uint256)": "ac687cc4"
  },
  "id": 48
}